S0170000375365676D656E74446973706C61792E737265632D
S11300000C943E000C9450000C9450000C9450003E
S11300100C9450000C9450000C9450000C9450001C
S11300200C9450000C9450000C9450000C9450000C
S11300300C9450000C9450000C9450000C945000FC
S11300400C9413020C9450000C9450000C94500027
S11300500C9450000C9450000C9450000C945000DC
S11300600C9450000C94500089018D01910195016C
S113007099019D01A101A501A901AD0111241FBE92
S1130080CFEFD8E0DEBFCDBF21E0A0E0B1E001C0FA
S11300901D92A430B207E1F70E9452000C94BB03F6
S11300A00C9400008AB1806C8AB98BB18F738BB9C0
S11300B087B18F6387B988B1807C88B984B18FEFA9
S11300C084B995B185B978940E94FF014C9973C0A5
S11300D079C0CA3010F01F5FC0E01A3010F0DF5F43
S11300E010E0DA3010F00F5FD0E00A3008F456C0A8
S11300F0D0E054C080E00E94B1018FE99FE00197F5
S1130100F1F700C0000081E00E94B1018C2F0E9431
S113011080018FE99FE00197F1F700C0000080E0C3
S11301200E94B1018FE99FE00197F1F700C0000040
S113013082E00E94B101812F0E9480018FE99FE03B
S11301400197F1F700C0000080E00E94B1018FE93F
S11301509FE00197F1F700C0000083E00E94B10125
S11301608D2F0E9480018FE99FE00197F1F700C075
S1130170000080E00E94B1018FE99FE00197F1F750
S113018000C0000084E00E94B101802F0E94800121
S11301908FE99FE00197F1F700C0000061E070E093
S11301A080E090E00E945802882309F4A3CF0E94C3
S11301B04F02CF5F04C000E0D0E010E0C0E04C99F3
S11301C088CF84CF80E00E94B1018FE99FE001973E
S11301D0F1F700C0000081E00E94B10180E00E94BC
S11301E080018FE99FE00197F1F700C0000080E0F3
S11301F00E94B1018FE99FE00197F1F700C0000070
S113020082E00E94B10180E00E9480018FE99FE0BA
S11302100197F1F700C0000080E00E94B1018FE96E
S11302209FE00197F1F700C0000083E00E94B10154
S113023080E00E9480018FE99FE00197F1F700C000
S1130240000080E00E94B1018FE99FE00197F1F77F
S113025000C0000084E00E94B10180E00E9480019F
S11302608FE99FE00197F1F700C000002FCF80FFD6
S113027004C098B1916098B903C098B19E7F98B9B1
S113028081FF04C098B1926098B903C098B19D7F72
S113029098B982FF04C098B1946098B903C098B12A
S11302A09B7F98B983FF04C098B1986098B903C044
S11302B098B1977F98B984FF04C098B1906198B9B8
S11302C003C098B19F7E98B985FF04C098B190622D
S11302D098B903C098B19F7D98B986FF04C09BB1BB
S11302E090649BB903C09BB19F7B9BB9882324F482
S11302F08BB180688BB908958BB18F778BB90895D2
S113030090E08A30910560F5FC01EC5CFF4F0C94A1
S1130310B5038FEE0E94370108958CE20E943701E5
S1130320089587EB0E94370108958EEB0E943701F0
S113033008958CE70E94370108958EED0E943701DD
S113034008958FED0E94370108958CEA0E943701C9
S113035008958FEF0E94370108958EEF0E943701B0
S11303600895823029F128F4882341F0813099F0EE
S11303700895833051F18430A9F1089585B18061E5
S113038085B985B1826085B985B1846085B985B147
S1130390886085B9089585B18D7F85B985B18061FF
S11303A085B985B1846085B985B1886085B90895BA
S11303B085B18B7F85B985B1806185B985B182604E
S11303C085B985B1886085B9089585B1877F85B978
S11303D085B1806185B985B1826085B985B1846054
S11303E085B9089585B18F7E85B985B1826085B957
S11303F085B1846085B985B1886085B90895109206
S1130400000110920101109202011092030185B5BE
S1130410856085BD85B3816085BBEEE6F0E08081B3
S11304208160808308951F920F920FB60F9211245A
S11304302F938F939F93AF93BF93809100019091DB
S11304400101A0910201B09103010196A11DB11D0A
S11304508093000190930101A0930201B0930301E2
S11304608091000190910101A0910201B0910301DA
S11304708F3F9F4FAF4FBF4F41F410920001109236
S113048001011092020110920301BF91AF919F915B
S11304908F912F910F900FBE0F901F90189510926F
S11304A000011092010110920201109203010895BB
S11304B08F929F92AF92BF92CF92DF92EF92FF9270
S11304C04B015C0160910001709101018091020176
S11304D0909103010E94FE0220E030E044E752E4E0
S11304E00E948C026B017C01C501B4010E94FE02D2
S11304F09B01AC01C701B6010E948C03882314F050
S113050081E001C080E0FF90EF90DF90CF90BF903A
S1130510AF909F908F9008950E94A0020C94520374
S11305200E944B0358F00E94440340F029F45F3FBB
S113053029F00C943B0351110C9486030C94410351
S11305400E94630368F39923B1F3552391F3951B38
S1130550550BBB27AA2762177307840738F09F5FE0
S11305605F4F220F331F441FAA1FA9F335D00E2E4D
S11305703AF0E0E832D091505040E695001CCAF7BA
S11305802BD0FE2F29D0660F771F881FBB1F26177D
S113059037074807AB07B0E809F0BB0B802DBF0154
S11305A0FF2793585F4F3AF09E3F510578F00C9423
S11305B03B030C9486035F3FE4F3983ED4F38695A3
S11305C077956795B795F7959F5FC9F7880F911D44
S11305D09695879597F90895E1E0660F771F881F30
S11305E0BB1F621773078407BA0720F0621B730BE3
S11305F0840BBA0BEE1F88F7E0950895E89409C0C0
S113060097FB3EF490958095709561957F4F8F4F41
S11306109F4F9923A9F0F92F96E9BB279395F69557
S1130620879577956795B795F111F8CFFAF4BB0FD5
S113063011F460FF1BC06F5F7F4F8F4F9F4F16C039
S1130640882311F096E911C0772321F09EE8872FC3
S1130650762F05C0662371F096E8862F70E060E07F
S11306602AF09A95660F771F881FDAF7880F9695F8
S1130670879597F9089597F99F6780E870E060E09F
S113068008959FEF80EC089500240A941616170627
S113069018060906089500240A941216130614066F
S11306A005060895092E0394000C11F4882352F0D2
S11306B0BB0F40F4BF2B11F460FF04C06F5F7F4F8A
S11306C08F4F9F4F089557FD9058440F551F59F071
S11306D05F3F71F04795880F97FB991F61F09F3F2B
S11306E079F087950895121613061406551FF2CF54
S11306F04695F1DF08C0161617061806991FF1CFA4
S113070086957105610508940895E894BB276627CA
S11307107727CB0197F908950E94910308F48FEF8E
S11307200895990F0008550FAA0BE0E8FEEF16167E
S11307301706E807F907C0F012161306E407F507D1
S113074098F0621B730B840B950B39F40A2661F045
S1130750232B242B252B21F408950A2609F4A140E8
S1130760A6958FEF811D811D0895EE0FFF1F059043
S10D0770F491E02D0994F894FFCFF2
S9030000FC
